:020000040800F2
:1000000000100020CD5D0008895B00088F5B0008B0
:1000100000000000000000000000000000000000E0
:10002000000000000000000000000000955B0008D8
:1000300000000000000000009F5B0008A95B0008B2
:100040001D5E0008000000001D5E00081D5E000827
:100050001D5E00081D5E00081D5E00081D5E000894
:1000600000000000B55B0008DD5B0008155C0008BF
:100070001D5E0008A15C00081D5E00080000000075
:10008000C95C00080000000000000000715D00086D
:10009000000000001D5E00081D5E00081D5E0008D7
:1000A000000000001D5E0008000000001D5E00084A
:1000B0000000000000000000000000000000000040
:1000C00010B5064C2378002B07D1054B002B02D02E
:1000D000044800E000BF0123237010BD1000002081
:1000E00000000000B4720008044B10B5002B03D0D0
:1000F0000349044800E000BF10BDC04600000000F6
:1001000014000020B4720008002243088B4274D30C
:1001100003098B425FD3030A8B4244D3030B8B4208
:1001200028D3030C8B420DD3FF22090212BA030C11
:100130008B4202D31212090265D0030B8B4219D3F2
:1001400000E0090AC30B8B4201D3CB03C01A524112
:10015000830B8B4201D38B03C01A5241430B8B425A
:1001600001D34B03C01A5241030B8B4201D30B0343
:10017000C01A5241C30A8B4201D3CB02C01A52416A
:10018000830A8B4201D38B02C01A5241430A8B422D
:1001900001D34B02C01A5241030A8B4201D30B0216
:1001A000C01A5241CDD2C3098B4201D3CB01C01A30
:1001B000524183098B4201D38B01C01A524143093A
:1001C0008B4201D34B01C01A524103098B4201D328
:1001D0000B01C01A5241C3088B4201D3CB00C01A95
:1001E000524183088B4201D38B00C01A524143080D
:1001F0008B4201D34B00C01A5241411A00D2014632
:10020000524110467047FFE701B5002000F0F0F8BA
:1002100002BDC0460029F7D076E7704703460B437E
:100220007FD4002243088B4274D303098B425FD3EF
:10023000030A8B4244D3030B8B4228D3030C8B421B
:100240000DD3FF22090212BA030C8B4202D3121201
:10025000090265D0030B8B4219D300E0090AC30BD6
:100260008B4201D3CB03C01A5241830B8B4201D383
:100270008B03C01A5241430B8B4201D34B03C01A6C
:100280005241030B8B4201D30B03C01A5241C30AE4
:100290008B4201D3CB02C01A5241830A8B4201D355
:1002A0008B02C01A5241430A8B4201D34B02C01A3F
:1002B0005241030A8B4201D30B02C01A5241CDD2E4
:1002C000C3098B4201D3CB01C01A524183098B422F
:1002D00001D38B01C01A524143098B4201D34B0118
:1002E000C01A524103098B4201D30B01C01A52417B
:1002F000C3088B4201D3CB00C01A524183088B4202
:1003000001D38B00C01A524143088B4201D34B00EA
:10031000C01A5241411A00D201465241104670475C
:100320005DE0CA0F00D04942031000D34042534061
:1003300000229C4603098B422DD3030A8B4212D321
:10034000FC22890112BA030A8B420CD38901921153
:100350008B4208D3890192118B4204D389013AD090
:10036000921100E08909C3098B4201D3CB01C01A65
:10037000524183098B4201D38B01C01A5241430978
:100380008B4201D34B01C01A524103098B4201D366
:100390000B01C01A5241C3088B4201D3CB00C01AD3
:1003A000524183088B4201D38B00C01A5241D9D2EB
:1003B00043088B4201D34B00C01A5241411A00D26C
:1003C0000146634652415B10104601D34042002B68
:1003D00000D54942704763465B1000D3404201B5E7
:1003E000002000F005F802BD0029F8D016E770479C
:1003F0007047C046844608006146FFE71FB500F01D
:10040000EDF9002801D40021C8421FBD10B500F04D
:1004100079F94042013010BD10B500F0DFF9002835
:1004200001DB002010BD012010BDC04610B500F05A
:10043000D5F9002801DD002010BD012010BDC04607
:1004400010B500F085F9002801DC002010BD012066
:1004500010BDC04610B500F07BF9002801DA00207D
:1004600010BD012010BDC0469E2110B5C905041C59
:10047000FFF7F0FF002803D1201C00F0A1FB10BD06
:100480009E21201CC90500F0EDF900F099FB8023A6
:100490001B069C466044F2E770B500220C4B04003A
:1004A0000D0002F02DF9002804D12000290002F0EF
:1004B00067F870BD064B00222000290001F0CEFC39
:1004C00002F05EF880231B069C466044F1E7C046BC
:1004D0000000E041F0B54F464646D6464502C0B55D
:1004E00047000C1C6D0A3F0EC60F002F00D170E0B4
:1004F000FF2F00D175E0EB008025ED041D430023A4
:1005000099469A467F3F6002430A984663001B0E55
:10051000E40F002B4ED0FF2B46D04246D000802265
:10052000D2040243904600227F3B3100FF1A4B4623
:100530006140C9B213430F2B00D9B5E06E489B0050
:10054000C3589F4600239846260045469246534688
:10055000022B00D189E0032B00D19EE0012B18D0A3
:100560003B007F33002B69DD6A0704D00F222A404D
:10057000042A00D004352A0103D5604B1D403B00FE
:100580008033FE2B00DD70E0AD016D0AD8B202E0D1
:100590000E0000200025C0052843F6073043E0BCCC
:1005A000BA46B146A846F0BD4346002B3FD10222D1
:1005B000FF3F03E04346002B2DD1012231004B4683
:1005C0006140C9B213430F2B34D84D489B00C35828
:1005D0009F46002D13D104239946033B00279A46DA
:1005E00091E7002D05D108239946063BFF279A463F
:1005F00089E70C239946093BFF279A4683E72800A1
:1006000002F088F87627431F9D4000237F429946D9
:100610009A463F1A77E7404602F07CF84246431F6D
:100620009A4076235B4290461B1A00227DE7FF2307
:1006300003227AE70E00FF200025ACE70120C01A54
:100640001B28A6DC9E372A00BD40C2406B1E9D4180
:1006500015436B0704D00F232B40042B00D0043527
:100660006B0144D50120002595E7FF20002592E786
:1006700080250026FF20ED038DE70023984680208B
:10068000C003054209D04346034206D1454605430F
:100690006D022600FF206D0A7DE78020C003054320
:1006A0006D02FF206D0A76E742466B0150018342DE
:1006B00019D21B220025013F01261C006D005B00A2
:1006C000002C01DB984201D81B1A3543013A002A5D
:1006D000F3D15A1E93411D433B007F330E00002B84
:1006E00000DD41E7AAE71A2201251B1AE4E7AD0164
:1006F00000206D0A4FE7C04634730008FFFFFFF784
:100700007473000870B5420045024E024C00C30FDE
:100710006D0A0120120E760A240EC90FFF2A06D098
:10072000FF2C03D0A24201D1B54206D070BD002DEE
:10073000FCD1FF2CFAD1002EF8D18B4206D001203B
:10074000002AF3D12800431E9841EFE70020EDE78F
:1007500070B5420045024E024C00C30F6D0A120EE6
:10076000760A240EC80FFF2A1BD0FF2C0ED0002AB9
:100770001BD1002C01D1002E1CD0002D0CD08342A7
:100780001CD00221581E0840013870BD002E22D115
:10079000002AF4D1002DF2D10028F6D101204042E8
:1007A000F3E7002D17D1FF2CF0D0002CE7D1002E5D
:1007B000E5D1E6E70020002DE7D0E2E7A24205DC24
:1007C000EADBB54202D8E7D30020DEE743425841D6
:1007D00040000138D9E702204042D6E770B5420018
:1007E00045024E024C00C30F6D0A120E760A240E0B
:1007F000C80FFF2A0BD0FF2C0DD0002A1FD1002CD0
:1008000016D1002E14D10020002D10D009E0002DAB
:100810000CD1FF2C13D1002E08D1002A08D083421E
:1008200012D00221581E0840013800E0022070BD9D
:10083000002DF4D10028FAD101204042F7E7002C26
:10084000EDD1002EEBD1ECE7A24205DCF2DBB542A4
:1008500002D8EFD30020EAE7434258414000013874
:10086000E5E7C046F8B5CE46474643025B0A4E026E
:10087000DA009446720A914645004A0080B52D0E72
:100880001F00C40F120EC90FB609FF2A5BD001204A
:1008900041408C4239D0A81A00285ADD002A6AD07B
:1008A000FF2D00D1D9E08022D20416431B2800DCA2
:1008B000E9E001206346181A430100D4B4E0800146
:1008C0008709380001F026FF05388740854200DCA3
:1008D000CCE02D1AB5483840430704D00F2303401D
:1008E000042B00D00430430100D4A0E06A1CFE2D8C
:1008F00000D18DE08001470AD2B2D0053843E40729
:100900002043C0BCB946B046F8BDA81A80460028AE
:1009100045DD002A70D0FF2D00D19EE08023DB044E
:100920001E4343461B2B00DCD2E001206044430100
:100930007AD50135FF2D6BD001239D4A0340400835
:1009400010401843C8E7002E20D08C4223D0280046
:10095000FF38002839D0571B002D00D09DE063469A
:10096000002B00D1DBE07B1E012F00D10DE1FF2F1A
:1009700071D01F0098E0002E00D1A7E0421E012890
:1009800000D1E6E0FF2868D010008FE70120414049
:10099000A14200D07FE7FF2040428046A844404665
:1009A000002838D0511B002D00D1AEE0FF2A00D125
:1009B000DFE080236046DB04184384461B2900DC0B
:1009C000D9E0012015008019B1E7FE206A1C104211
:1009D00071D1002D00D0A6E06346002B00D1D9E0F4
:1009E0000022002E00D188E7981B430100D4E1E0EB
:1009F00063460C00F01A6FE7002E00D1B7E002004A
:100A0000013A012800D19CE0FF2826D0904688E7D3
:100A1000FF22002771E7FE206A1C104264D0FF2AE3
:100A2000F6D0150066447008430700D056E7C308A7
:100A3000FF2D12D05B025F0AEAB25EE76246002A2F
:100A400000D196E0002E08D08022D203134204D0B9
:100A50004846104201D10C004B46002BD8D08027CD
:100A6000FF031F437F02FF227F0A46E720233A004D
:100A7000451B38000135EA405D1BA840431E9841E4
:100A80000025104328E720231B1A32009E40C24055
:100A90003000431E984110430CE7FF2ADBD080232F
:100AA0006046DB04184384461B2F56DD01200C00F2
:100AB0001500301A00E763469F1B7B013DD4002FD1
:100AC00000D0FEE600240022002716E70500AFE76D
:100AD000320043464146DA4020235B1A9E403000F4
:100AE000431E9841104321E7002DA7D16346002BF8
:100AF00059D00022002E00D1FFE6300060444301AF
:100B000092D52A4B013518408EE76346002B47D01B
:100B10004B1E012915D0FF292BD019004EE70C00E0
:100B20004B463D0084E76246002A8BD1002E92D1CD
:100B300080270024FF22FF03DFE663460C00F71A3C
:100B4000BFE6300060440125430100D46CE7022574
:100B5000F2E663460125981BAEE620236446604614
:100B6000FC40DF1BB840431E984120439FE705002F
:100B70005EE74B4671E7202365466046CD40591A33
:100B80008840431E984128431CE763460C0001251A
:100B9000F01A91E6002E95D00C004F460022ACE6EC
:100BA0004B460D0044E74F460022A6E6FFFFFFFB41
:100BB000FFFFFF7D002800D036E7002400279CE6D9
:100BC00041024200C30F490A0020120E7E2A03DDB3
:100BD0009D2A02DD094A98187047802000040143CD
:100BE000952A07DC9620821AD1404842002BF3D187
:100BF0000800F1E7963A9140F7E7C046FFFFFF7F14
:100C0000F8B5002813D0C317C6185E40C40F3000D3
:100C100001F080FD9E2305001B1A962B0FDC08288F
:100C200001DD083DAE407602760AD8B202E000242B
:100C300000200026C0053043E4072043F8BD992B6F
:100C40000CDD05223100121AD1400A0001003000EB
:100C50001B318840411E884102431600052D12DCDD
:100C600031000D4F3940720709D00F203040042861
:100C700005D004314A0102D59F2339405B1B89010D
:100C80004E0AD8B2D6E76A1F96403100024F39406B
:100C90007207F4D0E9E7C046FFFFFFFB70B5051E01
:100CA0000ED001F037FD9E2304001B1A962B0CDC9E
:100CB000082801DD083CA5406D026D0AD8B201E0AC
:100CC00000200025C005284370BD992B09DD0200D6
:100CD00029001B3291404A1E91410522121AD5402B
:100CE0000D43052C12DC29000C4E31406A0709D057
:100CF0000F202840042805D004314A0102D59F2343
:100D000031401B1B89014D0AD8B2DBE7621F9540B9
:100D10002900024E31406A07F4D0E9E7FFFFFFFBEC
:100D2000F0B54F464646D6460D000400C0B51F003C
:100D300011002803620F400A10437A00520DE300AD
:100D40003C039146640AFA0F4F0F6E002743924608
:100D5000B846760DED0FC900954200D199E04C469A
:100D6000341BA446002C00DC7CE04A46002A00D15B
:100D7000B8E0C54A964200D11CE180223C00120432
:100D80001443A0466246382A00DD61E11F2A00DDD7
:100D9000CCE164462022121B444694400F00A14639
:100DA00064469140E7404C464A1E91413C434246CE
:100DB00021436446E240801A5C1AA3429B415F4291
:100DC000C71B3B0200D4D0E07F027F0A002F00D176
:100DD000FFE0380001F09EFC0100083920232200CA
:100DE0005B1A8F40DA408C401743B14200DAFFE0D3
:100DF000891B4B1C1F2B00DDA8E020223900D21AD2
:100E0000200094409140D840621E9441DF4000266B
:100E100001430C43630709D00F232340042B05D063
:100E2000231DA342A44164423F191C003B0200D48D
:100E30009EE0954B01369E4200D1B7E0934AE4080C
:100E400017407B0771057F0223433F0B4A0D1205B4
:100E50003A43ED072A4318001100E0BCBA46B146F8
:100E6000A846F0BD002C4BD04C46A41BA446002E37
:100E700000D023E104001C4300D1AFE16246541EC0
:100E8000012A00D115E2804DAC4500D1C8E1A4464D
:100E90001BE14A46B21A9446002A00DCACE04A46FE
:100EA000002A43D0784A964200D1AFE180223C002C
:100EB00012041443A0466246382A67DC1F2A00DC6D
:100EC0005FE14746203AD7406246202A05D0644673
:100ED0004022121B4446944021434A1E91410C007B
:100EE0003C4357E03A000A4300D105E12200013AB1
:100EF000012C00D182E1644CA4455BD0944641E7CB
:100F0000634C771C274200D0C4E004001C43002E31
:100F100000D069E1002C00D1BFE144460C4300D071
:100F2000D0E14207DB081343C00829E03A000A4336
:100F300000D170E162466446013A012C00D1E0E044
:100F4000514CA44500D161E19446B4E73A001F3901
:100F5000CA401100202B03D04022D31A9F403C43AB
:100F6000631E9C41002700260C43630700D053E713
:100F7000B446E4087B072343F808434A94451DD050
:100F80006246070352053F0B520D60E744460C438F
:100F9000621E9441E4189C429B415F423F183B0211
:100FA000E3D5394B01369E4200D0B5E03200002730
:100FB00000234CE74207DB081343C0081A00024332
:100FC00000D1E1E180273F0307433F032E4A3F0B57
:100FD0003DE7200001F09EFB010018311F2900DCD5
:100FE000FCE60838844027000024B14200DBFFE61D
:100FF000264A761A17400DE7002A2FD04A46921B40
:101000009446002E00D1ADE01F4A914500D10FE17A
:101010008022120410436246382A00DD0FE11F2AA5
:1010200000DD80E1644620221E00121B674604009A
:1010300093409440FE405A1E9341F84034431C4371
:10104000804464188C42BF417F424E464744A6E725
:1010500042460A4311004A1E9141ADE60C4C721CF7
:10106000224200D0A1E002001A43002E00D0FAE094
:10107000002A00D145E13A000A4300D046E1420788
:10108000DB081343C0087BE7FF070000FFFF7FFF7B
:10109000FE07000047465C1AC21BA342BF417F42C5
:1010A000B94617004A46BF1A3A0200D58DE0230020
:1010B0003B4300D08AE60020002561E7B44CA145FF
:1010C00000D1ADE08024240420436446382C3DDC6C
:1010D00062461F2C00DDB7E020251E002D1B0400FA
:1010E000AB40AC40D640D04042465D1EAB4134439D
:1010F000121A904623432CE04207DB081343C00832
:101100003BE75C189C429B4140445B42C718012668
:101110003B0200D429E702269E4A630817400122B9
:1011200014401C43FB071C437F0873E64446203AE7
:10113000D4406246202A05D067464022D21B47464B
:10114000974039434A1E9141214335E60343581ED7
:101150008341CC1AA142BF4143467F4255464E4689
:10116000DF1B2EE602001A4300D1BDE06246644652
:10117000013A012C00D1E5E0854CA44558D09446B5
:1011800049E764462022121B444694400F00A146C2
:1011900064469140E7404C464A1E91413C434246DA
:1011A0000C436146CA408018F4E6794CA24200D153
:1011B000FDE6591899429B4140445F42C719FC071C
:1011C000490816000C437F08CFE6CC1AA142BF4164
:1011D00043467F42181A5546C71BF7E5C9087B07E7
:1011E00055460B43F808C8E6002C00D081E0434682
:1011F0000B4315D1802000250003E3E65C1AA342CF
:101200009B41C71B5B420126FF1ADAE54207DB0858
:101210001343C008D2E64207DB081343C008ACE61C
:1012200043464246C9085B0755460B43D008C5E60E
:10123000434642465B07C9080B43D008BEE603435A
:101240001C00631E9C41FCE60200203CE2401400AE
:101250006246202A03D04025AD1AA8400343581EF9
:101260008341234375E7002AE2D03A000A43CDD0F8
:101270004207DB0813438022C0081203104206D045
:10128000FC08144203D12000CB087A0713435A0FFD
:10129000DB005207DB08134390E643460B4300D1C3
:1012A00009E743464246C9085B0755460B43D00849
:1012B00066E6CC1AA14289413F1A494255460126A9
:1012C0007F1A7EE542465C1A871AA3429241524237
:1012D000BF1A3A023DD5CC1AA14289414346494240
:1012E0001F1A55467F1A95E57B07C9080B43F80876
:1012F00043E64446DB080C4330D142071343C008A1
:101300005CE67B07C9080B43F80839E65C189C4289
:101310009B4140445B42C7183B0200D425E61D4B6D
:1013200001261F4021E60400203AD4406246202ACC
:1013300004D040226646921B904003435A1E9341BC
:101340001C437EE65C188C42894140444942471860
:10135000DDE623003B4300D1ADE606E64407234328
:101360008024C0082403204208D04246D6082642E2
:1013700004D155463000CB0851070B435A0FDB0010
:10138000DB085207134319E60023014A1F005EE5FC
:10139000FF070000FFFF7FFFF0B557464E4645466A
:1013A000DE46E0B5814605000C03480092461F006A
:1013B00085B0240B400DCE0F002800D156E1D44B50
:1013C000984200D172E16B0FE4001C4380231B04A0
:1013D00023439846CF4BED009B4600239946834418
:1013E00000933C037B005046240B5B0DFF0F002B4A
:1013F00000D11FE1C64A934200D162E1C549420FC4
:101400008C46E40059461443802263441204CB1AEC
:1014100014439B46C200002033007B409A464B4653
:101420000F2B27D8BC499B00CB589F46B246009B48
:10143000022B16D0032B00D18EE2012B00D0D9E075
:1014400000230024002552461B052343D2071343E3
:101450002800190005B0F0BCBB46B246A946A0461C
:10146000F0BD00240025AA4BEDE7BA46A0461500C2
:101470000090DCE7444500D2C7E100D1C2E101237E
:101480005B429C462E0040460025E3442302140E96
:101490001C431B0C994623041F0C12024946009260
:1014A0000197FEF7B7FE02007A430B04310C804629
:1014B00019438A4207D901235B429C460919E0443B
:1014C0008C4200D807E2881A4946FEF7A3FE0904B9
:1014D0008C4631046646019A090C424303003143AD
:1014E0008A4204D90919013B8C4200D8EDE1881ADF
:1014F000424612041A4390464146009B0E041B0CC0
:101500001F000293009B360C1B04190C0B00734345
:10151000120C7E43039151437A431F0CBC4676184C
:101520006644B14203D9802149028C466244310CA1
:101530008A1831041E04360C8E19904202D312D13F
:10154000B54210D24346591E009B9C4665441F007D
:101550009D429B415B421B19C018844200D2A0E10E
:1015600000D19BE18846AE1BB542AD41801A6D4269
:10157000401B844200D1D5E14946FEF74BFE019A5B
:101580000B044243310C050019438A4200D96CE137
:10159000881A4946FEF73EFE019A36044243090482
:1015A000360C03000E43B24200D953E10398B61A39
:1015B00002002D041D43029F2B041B0C5A437B4346
:1015C0009C46290C4843130C844463447943984255
:1015D00003D98020400284466144180C12041B0485
:1015E000120C41189B188E4200D2FFE000D1FAE0A5
:1015F00001231D43494A5A44002A00DCAAE06B0734
:1016000000D03DE1ED084346DB0106D54246444BA0
:101610001A4090468022D2005A44424B9A4200DD42
:101620001FE743465B071D43434652055C02240BFC
:10163000530D08E75246224300D17BE0002C00D135
:10164000FAE0200001F066F802000B3A1D230100C9
:101650009B1A52460839DA408C40144352468A405D
:10166000314B58449B4683440020D5E64B462343E8
:10167000984644D0002C00D1CEE0200001F04AF87A
:10168000010002000B391D235B1A49461000D940A6
:10169000083884400B004D46234398468540234834
:1016A000831A9B460023994600939AE64B462343B0
:1016B00098461DD108239946063B00258346009392
:1016C0008FE65246224309D1022349461943184B5B
:1016D00089469C4600240220E3449DE603234A46B3
:1016E0001A43134B91469C4652460320E34493E62B
:1016F0000C239946093BA0468346009371E60423D8
:10170000994600239B4601330025009369E6C046B5
:10171000FF07000001FCFFFFB4730008FF03000097
:10172000FFFFFFFEFE070000F30300000DFCFFFFBC
:1017300001F8FFFF4946012319438946002401208F
:101740006AE6002380249A4600258A4B24037AE621
:1017500001256D4201239B1A382B00DD70E61F2BFB
:1017600000DCBFE01F2149428A1A4146D1400A00ED
:10177000202B04D04146804B5B4499400D436B1EA7
:101780009D4107232A431D0000241540134200D128
:10179000D4E00F2100231140042900D1CBE0111D1A
:1017A0009142924152429B180A00190200D4C2E0B1
:1017B00001230024002546E6802341461B031942ED
:1017C00008D01C4206D11C432403BA461500694BBD
:1017D000240B38E68024434624031C432403B246EA
:1017E000644B240B2FE6002B00D103E7A619681EDB
:1017F000A64200D28DE08E4200D2A3E000D1B3E039
:101800000500F5E6AA4200D939E64346DE07580846
:101810006B081E43ED0739E6484600F07BFF0100E8
:101820000200153120321C2900DC2CE74B46083819
:1018300083400025984632E700F06CFF03001A0051
:10184000153220301C2A00DC00E75446083B0022F9
:101850009C4005E73619013BB44200D9A6E6B242E6
:1018600000D8A3E6831E3619A0E60919013D8C4273
:1018700000D98DE68A4200D88AE6851E091987E6D6
:101880000F232B40042B00D1BCE605235B42AB4267
:101890009B4104355B42ED089844B4E6AF4200D961
:1018A00060E6824204D800D05CE6AE4200D859E639
:1018B00002235B429C46009BE0449C4665449D425B
:1018C0009B415B421B19C0184DE68A4200D80EE6C8
:1018D000831E09190BE68A4200D8F4E5831E984658
:1018E0000919F0E52549280059448D4042468A40AF
:1018F000691E8D414146D840D94002432A430B001E
:10190000510700D151E70F211140042900D046E7CB
:101910004BE705008E4200D06AE6009A934200D061
:1019200066E667E6164A5A44002A00DC10E70123FF
:101930000025984467E65D075B021C0BD208002374
:10194000154380E50098023D42008242BF417F423C
:101950003C1936190092DDE78024434624031C43DA
:101960002403044B240B6EE5009A9A42EAD3050047
:10197000D3E7C046FF0700003E0400001E0400003D
:10198000FF030000F0B557464E464546DE46E0B53B
:1019900098460C034B000600924687B0240B5B0D63
:1019A000CF0F002B00D15CE1D94A934200D175E101
:1019B000420FE4001443802212041443D54AC500A8
:1019C000944663440093002399469B46434642460F
:1019D0001E03D20F5B0050469046360B5B0D00D1C4
:1019E00020E1CB4A934200D162E1CA49420F8C46C2
:1019F00000996344F6008C46164380229C441204EE
:101A000063461643C200002000930099434601310B
:101A10008C4649467B4001930F2926D8BE4B89004E
:101A200059588F46434601933400150083465B4660
:101A3000022B16D0032B00D103E2012B00D0CDE006
:101A4000002200240025019B12052243DB071A43D4
:101A50002800110007B0F0BCBB46B246A946A0461C
:101A6000F0BD00240025AA4AEDE7280C2D042D0C1A
:101A70002B00110C1204120C5343984613002F0034
:101A8000434399464F434F44BB4647460B003F0CE8
:101A9000BA464343DA440293D14504D980277F02F2
:101AA000B9464B44029353461B0C9B4653461F04B6
:101AB00043461B041B0C98463B0043440493330CE1
:101AC0003604360C98463300434399464346434315
:101AD0002F009A46434677435D43380C4D444519E1
:101AE000A94503D980235B029946CA443F04280CC8
:101AF0003F0C2D04ED19270C2404240C03002000B6
:101B000050437A4391463A0053440593030C9A4656
:101B10004A43614349445144AB44894503D9802336
:101B20005B0299464A4400040B0C000C0904091896
:101B300020009946434670435C437E435F43030C59
:101B40009846A41944444A440397A64204D98023E2
:101B50005B029846474403972304029E9A46059BDE
:101B60005E449846AE42AD4176188E4289410004EB
:101B7000000C504440446D424719B84693464942D0
:101B80008946C344D94498428041A845AD41934514
:101B90009241894589416D4240422843240C52427A
:101BA00049420A43039B00198018C7184B46DC0DB5
:101BB000049B75021D436A1E95414B46F60D7F023C
:101BC00035435A023C431543FB0100D41CE101217B
:101BD0006A080D401543E207154364084F49614404
:101BE000002900DCB0E06B0709D00F222A40042A4C
:101BF00005D02A1DAA42AD416D4264191500E301CA
:101C000004D58021464AC90014406144454A9142A6
:101C100000DD26E76207ED08640249051543240B41
:101C20004A0D10E75246324300D17FE0002E00D12A
:101C3000DCE0300000F06EFD02000B3A1D230100D5
:101C40009B1A52460839DA408E40164352468A4063
:101C5000009B3549181A03008C466344002000930A
:101C6000D3E6250005434AD0002C00D1B0E0200087
:101C700000F050FD010002000B391D2310005B1A1B
:101C80003100350008388440D94085400C4326484F
:101C9000831A0093002399469B4697E60500254347
:101CA00026D1082200930223002491469B468DE60C
:101CB0005246009B324310D1154900268C4663449E
:101CC0004946009302231943894602209DE65B465C
:101CD0000197022B00D0ADE6C3E60D4A03209446DF
:101CE00063444A46009303231A43914652468CE6C6
:101CF0000C2200930323050091469B4666E60423CD
:101D0000994600230093013300249B465EE6C046BB
:101D1000FF07000001FCFFFFF4730008FF03000051
:101D2000FFFFFFFEFE0700000DFCFFFF49460123F9
:101D3000194389460026012067E6002380240025F8
:101D4000434A019324037EE60120401A382800DD2F
:101D500076E61F285BDD1F2223005242511ACB403A
:101D60001900202803D03B4A6244944025436A1E50
:101D700095412A000A4307210D0000241540114215
:101D80005BD00F2100241140042953D0111D914232
:101D900092415242A4180A0023024BD5012200248A
:101DA000002550E680231B031C4209D01E4207D1A8
:101DB00033431C0343461500240B254A019342E696
:101DC0008022120314432403214A240B01973AE68C
:101DD00000F0A0FC01000200153120321C2900DCBB
:101DE0004BE7340008380025844050E700F092FCAF
:101DF00003001A00153220301C2A00DC1EE756466C
:101E0000083B00229E4023E7009B9C46E6E61249E1
:101E1000220061442E008D408A40C640691E8D41DB
:101E200032432A43C4405307B6D00F21114004293E
:101E3000ACD1B1E765076402240BD2081543002238
:101E400001E68022120314432403014A240BFAE51D
:101E5000FF0700003E0400001E040000F8B55746CE
:101E60004E464546DE46E0B51E0017004A000B030D
:101E7000520D5B0A9046420F1A43CD0FCD4C3103F1
:101E8000C300944670007A0F490AFF009A46B9468B
:101E9000400DF60F1143A04200D1B1E0012256409F
:101EA000B346B54200D188E04246121A002A00DC4F
:101EB000AEE0002800D1C1E0BE48804500D151E12C
:101EC000802000040143382A00DD7BE11F2A00DD69
:101ED000EEE120203E00801A0C00D640D140874021
:101EE00062468440521A781E874194463443274301
:101EF000DC1BA3429B4162465B42D31A99464B4688
:101F00001B0200D418E14B465802430A99464B463F
:101F1000002B00D137E1484600F0FCFB01000839F6
:101F20002023220048465B1ADA4088408C40434612
:101F30001043884500DD36E1C91A4B1C1F2B00DD1C
:101F4000EAE020222600D21A01009440DE40D84068
:101F500000239140621E94418146984631430C43D0
:101F6000630709D00F232340042B05D0231DA34270
:101F7000A4416442A1441C004B461B0200D4DEE095
:101F800041468C4B0131994200D1E7E04B468A48EB
:101F9000E4080340180049055B07400223434A0D4B
:101FA000040B1205ED0722432A4318001100F0BC70
:101FB000BB46B246A946A046F8BD4246121A002AC0
:101FC00052DD002800D19CE0A04500D1CAE080206D
:101FD00000040143382A00DD49E11F2A00DC97E1B3
:101FE00010000E002038C640202A04D04020821A5B
:101FF00091400F43B9464C46621E944134433AE146
:102000000A003A4328D0B346B5422BD06B4A42442B
:10201000002A5DD042464446821A002C00D0F5E0EA
:1020200065461D4300D19CE1551E012A00D1FBE10C
:10203000604CA24200D1BDE12A00F0E00800384324
:1020400000D1C3E0501E012A00D1A8E1594CA242A0
:1020500000D187E0020036E701225640B346B54280
:1020600000D021E7554A4244002A00D1B5E042465B
:102070004446821A002C00D138E14E4EB04200D1C5
:10208000DEE18026644636043443A446382A00DD67
:1020900096E11F2A00DD24E22026B41AA2466446F7
:1020A0005646B440A1461C004E46D4402643340058
:1020B0005646B3405E1EB3411C436346D340C91825
:1020C000E419BC42BF417F42B94680468944D8E00A
:1020D00040463B4C0130204200D0B4E0404600284E
:1020E00000D044E16046184300D190E10800384335
:1020F00000D0AAE16146DB0849070B436146CC08E2
:1021000027E00800384361D0501E012A00D139E190
:10211000A24227D002005DE702001F39CA40110029
:10212000202B03D04022D31A98400443631E9C41C5
:102130000023994698460C43630700D012E74B46AC
:102140004A46E4085B072343D408424619498A42B9
:102150000ED024035205240B520D22E70A0000245E
:1021600000231EE7DB086246520713436246D40889
:102170001A00224300D1FCE18022120314432403FD
:102180000C4A240B0DE7200000F0C4FA01001831BE
:102190001F2900DCC4E608388440434620000024A0
:1021A000884500DCC8E6044A5B1A10409846814620
:1021B000D6E6C046FF070000FFFF7FFF01F8FFFFE4
:1021C000FE0700000F437A1E974191E66146DB0847
:1021D00049070B436146CC08B8E74046D34C013071
:1021E000204200D0A2E04046002800D001E1604635
:1021F000184300D15EE10800384300D05FE161463A
:10220000DB0849070B436146CC08A2E7C84DA8424A
:1022100000D1CFE0802564462D042C43A446382A03
:1022200056DC1F2A00DDD1E020251E00AD1A6446D1
:10223000AB40AC40D6405D1EAB41344323436446C3
:10224000D440091B49E06046DC1B461AA34280418A
:102250004042814630004E46801B8146000276D4C3
:102260004B46234300D052E60024002571E7394352
:102270000C00621E9441E4189C429B415B42634403
:1022800099464B461B0200D456E701239C46A84BB7
:10229000E044984538D04B46A64801220340180038
:1022A000630814401C43C3071C434308994657E680
:1022B00010000E002038C640202A04D04020821A88
:1022C00091400F43B9464F467A1E974137430FE678
:1022D00062461A4313005A1E9341FC1AA742BF419B
:1022E0007F42CB1B99465D46804608E666461E4304
:1022F00000D1BEE0561E012A00D109E18C4CA24259
:1023000000D119E13200C1E642460024002348E62C
:1023100020200C00801A3E0087408440D640781E62
:102320008741D14034433C438C44A4E7804A9042E7
:1023300000D1E9E0DF199F429B4161445B42C9182B
:10234000CC077F084B08994680463C43F4E6FC1ACC
:10235000A742BF4163467F42C91ACB1B99465D46DF
:10236000D5E5FF084B075D463B43CC08EEE66246E9
:102370001A4300D082E00B003B431BD18024002590
:102380002403F9E6DC199C429B41614489465B4287
:1023900099444B461B0244D401239846CCE6DC1BEF
:1023A0006246A3429B41511A5B42CB1A99460123D4
:1023B0009846A4E5FF084B075D463B43CC08D7E6AB
:1023C00062461A431400631E9C4179E61500644678
:1023D000203DEC40A046202A05D040256446AA1A9C
:1023E000944023439A465446631E9C4143462343EC
:1023F00073E762461A4323D00A003A4300D0A0E0B4
:102400006246DB08520713436246D408B0E60B006D
:102410003B4300D128E7FF084B075D463B43CC0810
:1024200097E60223984636E7FC1AA742BF41634667
:102430007F42C91ACB1B994601235D4698465EE54B
:102440004B07FF083B43CC0892E6DC1B6046A342E7
:10245000B641401A7642801B8146000260D5FC1AC4
:10246000A742BF4163467F42C91ACB1B99465D46CE
:1024700076E5FF084B073B43CC0867E60A00DB081C
:102480003A4300D16FE66246520713436246D408CE
:1024900080221203144207D0C808104204D15D46BE
:1024A0000400FB0849070B435A0FDB00DB08520707
:1024B00013435DE64B07FF083B43CC0849E6DC19B4
:1024C0009C429B41614489465B4299444B461B02B6
:1024D00000D431E64A46174B1A40012391469846EC
:1024E0002AE616006446203EF440A046202A05D085
:1024F00040266446B21A944023439A465446631ECB
:102500009C4143461C43DBE502000024002348E5D0
:10251000DC19BC42BF41614489467F42B94438E777
:102520004B46234300D19FE606E6C046FE07000067
:10253000FF070000FFFF7FFFFF084B073B43CC086E
:1025400016E66246DB08520713436246D40880222F
:102550001203144207D0C808104204D15D4604009B
:10256000FB0849070B435A0FDB005207DB081343F4
:10257000FEE50023014A1C0013E5C046FF070000EA
:102580000A0030B5134C530009030500090B002065
:102590005B0DD20FA34204DD0F48834202DD0F4BD7
:1025A000D01830BD8020400301430D48C01A1F28B9
:1025B00008DD0C48C31AD9400B005842002AF0D15C
:1025C0001800EEE7084CC540A446634499400B0050
:1025D0002B43F2E7FE0300001D040000FFFFFF7F16
:1025E0003304000013040000EDFBFFFF70B500286A
:1025F00016D0C317C5185D40C40F280000F08AF834
:10260000114A121A0A2816DC03002E0015339E40C8
:102610000B23181AC54052052D032D0B530D03E053
:1026200000240023002500261B052B43E407234339
:102630003000190070BD0B38854052052D0300266F
:102640002D0B530DF0E7C0461E04000010B5041E0C
:1026500010D000F05FF80F4B1B1A0A2811DC0B2278
:102660002100121AD14015300A035B058440120B79
:102670005B0D01E0002300221B051343200019001D
:1026800010BD22000B3882405B0512030024120BA0
:102690005B0DF1E71E0400008446100062468C4684
:1026A0001900634600E0C0461FB500F0F9F80028A5
:1026B00001D40021C8421FBD10B500F049F84042C6
:1026C000013010BD10B500F0EBF8002801DB002050
:1026D00010BD012010BDC04610B500F0E1F8002883
:1026E00001DD002010BD012010BDC04610B500F076
:1026F00071F8002801DC002010BD012010BDC0468B
:1027000010B500F067F8002801DA002010BD0120A4
:1027100010BDC0461C2101231B04984201D3000CAC
:1027200010391B0A984201D3000A08391B09984244
:1027300001D30009043902A2105C40187047C0465A
:10274000040302020101010100000000000000007A
:10275000F0B54E464546DE4657469046E0B5170072
:102760001A03120B0500844619480E034C009146CB
:102770005A00DB0F9B46360B640DC90F520D844285
:1027800019D0824210D0012094420ED14E450CD176
:102790000120C44509D1594517D0002C05D130007E
:1027A0002843431E984100E00120F0BCBB46B246DE
:1027B000A946A046F0BD330001202B43F5D1A2422B
:1027C000F3D14B463B43F0D1E2E70020EDE7C046B2
:1027D000FF070000F0B54746CE460400180016007B
:1027E0001B031B0B2D4D4A00994680B543000F0378
:1027F000A446B0463F0B520DC90F5B0DC00FAA4255
:1028000021D0AB4213D0002A22D13C43002B02D16D
:102810004D462E4322D0002C10D0814222D00220DF
:10282000013908400138C0BCB946B046F0BD4D463C
:102830002E4329D1002AF0D13C43EED10028F2D119
:1028400001204042EFE73D0025431DD19342EED0E9
:10285000002BE2D14C462643DFD1E0E70020002CDC
:10286000E1D0DCE79A420ADCE8DB4F45D7D80ED04E
:1028700000204F45D7D20029E2D00800D3E74342D9
:10288000584140000138CEE702204042CBE7C44522
:10289000C5D80020C445C6D2EDE7C046FF070000FA
:1028A000F0B54746CE460400180016001B031B0B6C
:1028B0002C4D4A00994680B543000F03A446B0460C
:1028C0003F0B520DC90F5B0DC00FAA420DD0AB429A
:1028D00010D0002A27D13C43002B11D14D462E4366
:1028E0000ED10020002C15D00EE03D00254310D164
:1028F000934218D14D462E430BD1002A02D13C43BE
:10290000002C0BD0814214D002200139084001383C
:1029100000E00220C0BCB946B046F0BD0028F9D1A5
:1029200001204042F6E7002BECD14C462643E9D18A
:10293000EAE79A4204DD4342584140000138E9E7A2
:102940009A42EBDB4F45DFD806D000204F45E1D25D
:102950000029E5D00800DDE7C445D5D80020C445EE
:10296000D8D2F5E7FF070000B0B500AF754B2422C1
:102970009B5C002B00D1E1E0724B9B681800FFF7D5
:1029800065FE714A714BFEF7FDFF02000B0014005B
:102990001D006F4B1B881800FFF728FE6D4A6E4B19
:1029A000FEF7F0FF02000B0020002900FEF7B8F947
:1029B00002000B0010001900FDF76EFD0200614BD4
:1029C0009A60604BDB681800FFF740FE5E4A5F4B81
:1029D000FEF7D8FF02000B0014001D005C4B5B8863
:1029E0001800FFF703FE5B4A5B4BFEF7CBFF0200CC
:1029F0000B0020002900FEF793F902000B001000E5
:102A00001900FDF749FD02004E4BDA604D4B1B6982
:102A10001800FFF71BFE4C4A4C4BFEF7B3FF0200B9
:102A20000B0014001D004A4B9B881800FFF7DEFDC9
:102A3000484A494BFEF7A6FF02000B002000290080
:102A4000FEF76EF902000B0010001900FDF724FDDF
:102A500002003C4B1A613B4B5B691800FFF7F6FD27
:102A6000394A3A4BFEF78EFF02000B0014001D009E
:102A7000374BDB881800FFF7B9FD364A364BFEF7B7
:102A800081FF02000B0020002900FEF749F9020037
:102A90000B0010001900FDF7FFFC0200294B5A61E2
:102AA000284B1B6A1800FFF7D1FD274A274BFEF77A
:102AB00069FF02000B0014001D00254B1B89180044
:102AC000FFF794FD234A244BFEF75CFF02000B0046
:102AD00020002900FEF724F902000B001000190065
:102AE000FDF7DAFC0200174B1A62164B9B691800BF
:102AF000FFF7ACFD144A154BFEF744FF02000B0034
:102B000014001D00124B5B891800FFF76FFD114A7E
:102B1000114BFEF737FF02000B0020002900FEF7E3
:102B2000FFF802000B0010001900FDF7B5FC0200D1
:102B3000044B9A61034B242200219954C046BD46A0
:102B4000B0BDC04630000020989999999999B93F35
:102B50008C010020CDCCCCCCCCCCEC3F80B500AFF0
:102B6000034B242201219954C046BD4680BDC04676
:102B70003000002080B582B000AF0200FB1D1A704B
:102B8000FB1D1B78022B01D900230CE0FB1D1B78D9
:102B9000074A02339B00D31804331B68054A9A4244
:102BA0009B415B42DBB21800BD4602B080BDC0460F
:102BB00030000020DC05000080B582B000AF7860F6
:102BC0007B681B6801221A437B681A60C046BD46B9
:102BD00002B080BD80B500AF054B1800FFF7ECFFD9
:102BE000044B1800FFF7E8FFC046BD4680BDC04655
:102BF000004401400048014080B584B000AF7860D7
:102C000039600F23FB1800221A707B68BB600AE052
:102C1000BB6819780F22BB18BA1812784A401A708C
:102C2000BB680133BB607A683B68D318BA689A42C4
:102C3000EED30F23FB181B781800BD4604B080BDEF
:102C400080B500AF0449054B1422180000F0F8F8D5
:102C500003001800BD4680BD007C00087401002000
:102C600080B500AF044A054B1421180000F008F8A5
:102C7000C046BD4680BDC046007C000874010020EF
:102C8000F0B5C64600B590B000AF78623962FA611F
:102C90006B4698463B6A002B00DA01335B10180044
:102CA000FFF7A4FC02000B0010001900FDF7F4FB75
:102CB00003007B637B6B1A00013AFA63BB6000225E
:102CC000FA60B868F9680200120F0E0036017E61E2
:102CD0007E6916437E61020012013A613B60002268
:102CE0007A60386879680200120F0E0035011543CA
:102CF000020014015B000733DB08DB006A46D31ACD
:102D00009D466B4601335B085B00BB633A6A796A98
:102D1000BB6B180004F0BCFA3B6A043B1A00BB6BA7
:102D200011001800FFF768FF03001A00404B1A74E7
:102D30003A6A796ABB6B180004F0AAFAC0463D4BA8
:102D4000DB6801221340FAD13A4B1B698022134001
:102D500007D0384A384B1B685360364A374B1B68DC
:102D60005360FB699B059B0D22D1324B1A69314B95
:102D700002210A431A612F4BFA695A612D4B1A69D5
:102D80002C4B40210A431A61C0462A4BDB680122C2
:102D90001340FAD1274BDB682022134002D0254B89
:102DA0002022DA60234B1A69224B02218A431A61DE
:102DB00000233B630023FB6228E01E4B1A691D4B76
:102DC00001210A431A61FA6A396BFB69CB181900B1
:102DD000BB6B5200D35A0B80C046164BDB680122F6
:102DE0001340FAD1134BDB682022134002D0114B61
:102DF0002022DA600F4B1A690E4B01218A431A61B7
:102E00003B6B02333B63FB6A0133FB62FA6A7B6B09
:102E10009A42D2D3074B1A69064B80210A431A61A2
:102E2000C546C046BD4610B080BCB846F0BDC046E1
:102E30007401002000200240000000200400002057
:102E4000F0B5C64600B58EB000AF78623962FA615F
:102E50006B469846FB695A1E3A631A00BA60002214
:102E6000FA60B868F9680200520F0E00F6007E6141
:102E70007E6916437E610200D2003A611A003A6010
:102E800000227A60386879680200520F0E00F5005F
:102E900015430200D4000733DB08DB006A46D31A6F
:102EA0009D466B460033FB6200237B630BE07A6B2D
:102EB0003B6AD3181978FA6A7B6BD3180A1C1A700C
:102EC0007B6B01337B637A6BFB699A42EFDBFB69B7
:102ED000043B1A0013251826AB19DC19FB6A1100F4
:102EE0001800FFF789FE03002370FB69043BFA6AB0
:102EF000D35CAA19D21912789A4201D0012306E0B4
:102F0000FA69F96A7B6A180004F0C2F90023C54621
:102F10001800BD460EB080BCB846F0BD80B582B08A
:102F200000AF78607B681B6801221A437B681A60D7
:102F3000C046BD4602B080BD80B582B000AF7860AB
:102F400039607B681A6A3B681A437B681A62C0461C
:102F5000BD4602B080BD80B582B000AF78607B68AE
:102F6000DB6802221A437B68DA60C046BD4602B0C5
:102F700080BD80B582B000AF78607B685B6901225C
:102F80001A437B685A61C046BD4602B080BD80B519
:102F900084B000AF786039607B685B69FB60FB6878
:102FA0003A6813401A04FB68DB4339680B401A4344
:102FB0007B689A61C046BD4604B080BD80B584B0D0
:102FC00000AFF860B9607A603B60FA68BB68D31AFA
:102FD000B9693A688A1A5A4310007A68BB68D31AEA
:102FE0001900FDF791F803001A003B68D318180088
:102FF000BD4604B080BD000080B584B000AF7860ED
:10300000154B5B881A00144B1B88D31AD9175A1812
:103010004A400E217B181A807B181A88FA235B001D
:103020009A4209D90C4B1B881A007B689B1ADA1745
:103030009B1853409AB200E00A220E217B181A8096
:103040007B181A880921002391425B41DBB21800EA
:10305000BD4604B080BDC0467401002080B500AFFD
:10306000094B1800FFF777FF074B01211800FFF706
:1030700063FF054B1800FFF751FF034B1800FFF7E4
:1030800078FFC046BD4680BD0004004080B500AF5B
:10309000FFF7E4FF174A8C235B00FA218900D15225
:1030A000144A86235B000021D154124B00225A712E
:1030B000104B00229A71FFF7C3FD0300012B16D1BC
:1030C0000D4B9B6A5A1C0D4B9A600C4BE1229200EF
:1030D0001A800A4B0A4A5A80084B0122DA81074BB0
:1030E00000225A73054B00221A73FFF7B9FDC04640
:1030F000BD4680BD5800002000040040740100203F
:103100006C07000080B584B002AFC046504B5B79BD
:10311000002B05D14E4A86235B00D35C002BF5D0F3
:103120004B4A86235B00D35C002B00D18CE0484BDC
:103130009B687B60464B5B79002B24D0454B5B88BA
:103140001A007B68934200D373E0414B01221A714D
:10315000404B1B8819003F4B5B881A0078683E4B38
:1031600000930023FFF72AFF0200394B1A60384B07
:103170001B68394A934202D8354B1A6800E0002296
:10318000334B1A6055E0324B9B79002B33D0304BD8
:1031900002221A717B681800FFF72EFF031E04D06D
:1031A0002C4B9B8801339AB200E00022294B9A8075
:1031B000284B9B884B2B08D9254B01225A71244B55
:1031C00004221A71FFF74CFD10E0244B1A68FA2311
:1031D0005B009A420AD980231A029023DB05110072
:1031E0001800FFF7D4FE1D4B00221A607B689AB2CC
:1031F000184B1A801DE0164B00221A717B68184A82
:1032000093420AD9124B03221A71114B01229A716F
:103210007B689AB20F4B5A800BE00E4B1B881A004A
:103220007B68934205D80A4B01225A71084B04224D
:103230001A71074A8C235B000A21D152044A862363
:103240005B000021D15400E0C046BD4602B080BD05
:103250005800002074010020C607000088010020EB
:10326000DC05000080B582B000AF0200FB1D1A70C3
:10327000FB1D1B787F2B09D8FB1D1B781A001F2311
:103280001A40044B012191400A001A60C046BD4615
:1032900002B080BD00E100E090B583B000AF020055
:1032A0003960FB1D1A70FB1D1B787F2B28D82F4A15
:1032B000FB1D1B785BB29B08C0339B009B58FA1D1B
:1032C0001278110003220A40D200FF2191400A0027
:1032D000D2431A4011003B689B01FF221A40FB1D9C
:1032E0001B78180003230340DB009A401F48FB1D96
:1032F0001B785BB29B080A43C0339B001A5031E035
:103300001B4AFB1D1B7819000F230B40083B9B0831
:1033100006339B00D31804331B68FA1D1278110082
:1033200003220A40D200FF2191400A00D2431A40F2
:1033300011003B689B01FF221A40FB1D1B781800FF
:1033400003230340DB009A400948FB1D1B781C0047
:103350000F232340083B9B080A4306339B00C318F6
:1033600004331A60C046BD4603B090BD00E100E0E2
:1033700000ED00E080B582B000AF786039607B6816
:1033800040331800BD4602B080BD000080B582B059
:1033900000AF786039607B681B68054A1A403B685B
:1033A0001A437B681A60C046BD4602B080BDC04665
:1033B000FFFF3FFF80B582B000AF786039607B6867
:1033C0005B69072293431A003B681A437B685A6182
:1033D000C046BD4602B080BD80B582B000AF786007
:1033E00039607B68DB68042293431A003B681A4308
:1033F0007B68DA60C046BD4602B080BD80B582B051
:1034000000AF786039603B685B035A0B7B689A6257
:10341000C046BD4602B080BD80B582B000AF7860C6
:103420007B689B68044A134001221A437B689A60B8
:10343000C046BD4602B080BDE8FFFF7F80B582B0C8
:1034400000AF78607B689B6801221340013B5A42C1
:103450005341DBB21800BD4602B080BD80B582B0DA
:1034600000AF78607B689B68044A134004221A43CB
:103470007B689A60C046BD4602B080BDE8FFFF7F12
:1034800080B582B000AF786039603B68013B0A4A82
:10349000D35C1A007B68D3181A683B68013B064965
:1034A000CB5C19007B68CB1801210A431A60C04627
:1034B000BD4602B080BDC0463474000880B584B0FB
:1034C00000AFF860B9607A60BB68013B0B4AD35C1F
:1034D0001A00FB68D3181B68094A13401900BB681F
:1034E000013B064AD35C1A00FB68D3187A680A438A
:1034F0001A60C046BD4604B080BDC04634740008A2
:10350000EFBFFFFF80B584B000AFF860B9607A60AC
:10351000BB68013B0B4AD35C1A00FB68D3181B68DD
:10352000202293431900BB68013B064AD35C1A0072
:10353000FB68D3187A680A431A60C046BD4604B0D7
:1035400080BDC0463474000880B584B000AFF86018
:10355000B9607A60BB68013B0B4AD35C1A00FB6818
:10356000D3181B68402293431900BB68013B064AED
:10357000D35C1A00FB68D3187A680A431A60C04605
:10358000BD4604B080BDC0463474000880B584B028
:1035900000AFF860B9607A60BB68013B0B4AD35C4E
:1035A0001A00FB68D3181B68802293431900BB687C
:1035B000013B064AD35C1A00FB68D3187A680A43B9
:1035C0001A60C046BD4604B080BDC04634740008D1
:1035D00080B584B000AFF860B9607A60BB68013B29
:1035E0000B4AD35C1A00FB68D3181B68094A1340C6
:1035F0001900BB68013B064AD35C1A00FB68D3186C
:103600007A680A431A60C046BD4604B080BDC04611
:1036100034740008FFFCFFFF80B584B000AFF86091
:10362000B9607A60BB68013B0B4AD35C1A00FB6847
:10363000D3181B68094A13401900BB68013B064AAE
:10364000D35C1A00FB68D3187A680A431A60C04634
:10365000BD4604B080BDC04634740008FFF3FFFFD0
:1036600080B584B000AFF860B9607A60BB68013B98
:103670000B4AD35C1A00FB68D3181B68094A134035
:103680001900BB68013B064AD35C1A00FB68D318DB
:103690007A680A431A60C046BD4604B080BDC04681
:1036A00034740008FFCFFFFF80B582B000AF7860B0
:1036B00039603B68013B0A4AD35C1A007B68D31827
:1036C0001A683B68013B0649CB5C19007B68CB1844
:1036D00002210A431A60C046BD4602B080BDC04602
:1036E0003474000880B500AF044B1A68034B012105
:1036F0000A431A60C046BD4680BDC0460010024065
:1037000080B500AF054B1B6802221340023B5A42B2
:103710005341DBB21800BD4680BDC04600100240D8
:1037200080B582B000AF7860064B1B68F8229343E7
:1037300019007B68DA00034B0A431A60C046BD4695
:1037400002B080BD0010024080B500AF044B5A6B40
:10375000034B01210A435A63C046BD4680BDC046A3
:103760000010024080B500AF054B5B6B0222134096
:10377000023B5A425341DBB21800BD4680BDC046F1
:103780000010024080B500AF044B5A6B034B04217C
:103790008A435A63C046BD4680BDC0460010024001
:1037A00080B582B000AF7860064B5B6BF822934324
:1037B00019007B68DA00034B0A435A63C046BD46D2
:1037C00002B080BD0010024080B582B000AF7860CA
:1037D000064B5B68032293431900044B7A680A4343
:1037E0005A60C046BD4602B080BDC04600100240CF
:1037F00080B500AF034B5B680C2213401800BD4638
:1038000080BDC0460010024080B582B000AF786035
:10381000064B5B68F02293431900044B7A680A4315
:103820005A60C046BD4602B080BDC046001002408E
:1038300080B582B000AF7860064B5B68064A1340E3
:103840001900044B7A680A435A60C046BD4602B06C
:1038500080BDC04600100240FFF8FFFF80B500AFFA
:10386000044B1A68034B802149040A431A60C0467E
:10387000BD4680BD0010024080B500AF074B1A68FE
:1038800080239B041340FE221206944663445A424E
:103890005341DBB21800BD4680BDC0460010024057
:1038A00080B582B000AF786039600E4B5B680E4A1D
:1038B000134019007A6880235B021A403B681A4360
:1038C000084B0A435A60074BDB6A0F2293431900E7
:1038D0007B680F221A40034B0A43DA62C046BD469A
:1038E00002B080BD00100240FFFFC2FF80B584B06F
:1038F00000AF7860074B5969064B7A680A435A61F2
:10390000044B5B697A681340FB60FB68C046BD46A8
:1039100004B080BD0010024080B584B000AF786074
:10392000074BD969064B7A680A43DA61044BDB69B5
:103930007A681340FB60FB68C046BD4604B080BD9A
:103940000010024080B584B000AF7860074B9969E1
:10395000064B7A680A439A61044B9B697A68134064
:10396000FB60FB68C046BD4604B080BD001002404D
:1039700080B582B000AF7860064B1B68012293438C
:103980001900044B7A680A431A60C046BD4602B06B
:1039900080BDC0460020024080B500AF034B1B68CD
:1039A000012213401800BD4680BDC04600200240E1
:1039B00080B582B000AF78607B681B6880221A43B4
:1039C0007B681A60C046BD4602B080BD80B582B03B
:1039D00000AF78607B681B68802293431A007B6885
:1039E0001A60C046BD4602B080BD000080B584B0FC
:1039F00000AF786039603B68012B1ED03B68042B18
:103A000019D03B68102B14D03B68402B0FD03A687C
:103A100080235B009A4208D03A688023DB009A42F8
:103A200001D105230AE0062308E0042306E003236E
:103A300004E0022302E0012300E000230F203A18F3
:103A400013707B68183319003B181B780A4AD35C43
:103A5000CB18BB60BB681B683A18127807498A5CB0
:103A6000110004228A40D2431A40BB681A60C04643
:103A7000BD4604B080BDC0463C74000844740008D4
:103A800080B584B000AF786039603B68012B1ED0F0
:103A90003B68042B19D03B68102B14D03B68402B9B
:103AA0000FD03A6880235B009A4208D03A6880239E
:103AB000DB009A4201D105230AE0062308E0042333
:103AC00006E0032304E0022302E0012300E00023D8
:103AD0000F203A1813707B68183319003B181B78B5
:103AE000094AD35CCB18BB60BB681A683B181B78CB
:103AF0000649CB5C190008238B401A43BB681A6047
:103B0000C046BD4604B080BD3C7400084474000843
:103B100080B586B000AFF860B9607A60BB68012BF1
:103B20001ED0BB68042B19D0BB68102B14D0BB6807
:103B3000402B0FD0BA6880235B009A4208D0BA6845
:103B40008023DB009A4201D105230AE0062308E026
:103B5000042306E0032304E0022302E0012300E043
:103B6000002317203A181370FB68183319003B180C
:103B70001B780E4AD35CCB183B613B691B683A1833
:103B800012780B498A5C110003228A40D2431A4002
:103B90007B681B0C391809780548415C8B401A4337
:103BA0003B691A60C046BD4606B080BD3C74000843
:103BB0004C74000880B586B000AFF860B9607A60D8
:103BC000BB68012B1ED0BB68042B19D0BB68102B1F
:103BD00014D0BB68402B0FD0BA6880235B009A4298
:103BE00008D0BA688023DB009A4201D105230AE09D
:103BF000062308E0042306E0032304E0022302E096
:103C0000012300E0002317203A181370FB681833D3
:103C100019003B181B780E4AD35CCB183B613B69FB
:103C20001B683A1812780B498A5C11000C228A40F2
:103C3000D2431A407B681B0C391809780548415C4F
:103C40008B401A433B691A60C046BD4606B080BD32
:103C50003C7400084C74000880B586B000AFF86072
:103C6000B9607A60BB68012B1ED0BB68042B19D0E9
:103C7000BB68102B14D0BB68402B0FD0BA688023D0
:103C80005B009A4208D0BA688023DB009A4201D1D7
:103C900005230AE0062308E0042306E0032304E0EA
:103CA000022302E0012300E0002317203A181370DA
:103CB000FB68183319003B181B780E4AD35CCB18ED
:103CC0003B613B691B683A1812780B498A5C11000A
:103CD000F0228A40D2431A407B681B0C39180978BD
:103CE0000548415C8B401A433B691A60C046BD469B
:103CF00006B080BD3C7400084C74000880B586B0E6
:103D000000AFF860B9607A60BB68012B1ED0BB6859
:103D1000042B19D0BB68102B14D0BB68402B0FD0DC
:103D2000BA6880235B009A4208D0BA688023DB001F
:103D30009A4201D105230AE0062308E0042306E0A5
:103D4000032304E0022302E0012300E00023172004
:103D50003A181370FB681B6A3A1812780A498A5C91
:103D600011000A228A40D2431A403B181B780649A8
:103D7000CB5C19007B688B401A43FB681A62C04613
:103D8000BD4606B080BDC0465474000880B582B000
:103D900000AF786039607B689B68054A1A403B68D1
:103DA0001A437B689A60C046BD4602B080BDC046DB
:103DB000F8BFFFFF80B582B000AF786039607B68E4
:103DC0005B68702293431A003B681A437B685A6011
:103DD000C046BD4602B080BD80B582B000AF7860FD
:103DE0007B689B68802293431A007B689A60C04678
:103DF000BD4602B080BD80B582B000AF78607B6800
:103E00001B6801221A437B681A60C046BD4602B097
:103E100080BD000080B582B000AF78607B685B68D1
:103E2000074A1A407B685A607B689B680822934364
:103E30001A007B689A60C046BD4602B080BDC0468D
:103E4000FFF7FFFF80B586B000AF7860EFF3108317
:103E5000BB60BB687B610123FB60FB6883F3108858
:103E6000C0467B689B68074A1A407B689A607B69FA
:103E70003B613B6983F31088C046C046BD4606B02F
:103E800080BDC046FFFBFFFF80B584B000AFF86087
:103E9000B9607A60FB68D968BB685B431A0013009D
:103EA0005B009B18DB430B401A00BB685B437968DF
:103EB0004B431A43FB68DA60C046BD4604B080BD80
:103EC00080B582B000AF786039607B683A689A61EB
:103ED000C046BD4602B080BD80B582B000AF7860FC
:103EE00039607B683A689A62C046BD4602B080BDC0
:103EF00080B500AF0120FFF725FD80235B0518008A
:103F0000FFF70AFD01235B4203211800FFF7C4F904
:103F100000F016F800F066FC00F04EFC00F0F4FC37
:103F200000F05CF800F042FA00F0F0FA00F044FB18
:103F300000F092FB00F0C2FBC046BD4680BD000011
:103F400080B500AF0120FFF713FDC046FFF724FD49
:103F50000300012BFAD1FFF7C5FBC046FFF7D0FBEA
:103F60000300012BFAD11020FFF7DAFBFFF7ECFB7F
:103F7000C046FFF7F7FB0300012BFAD11020FFF733
:103F80000FFCA0239B0319000020FFF789FCFFF71B
:103F900065FCC046FFF770FC0300012BFAD100203E
:103FA000FFF732FC0020FFF743FC0220FFF70CFC78
:103FB000C046FFF71DFC0300082BFAD1064B180082
:103FC00003F034F9FFF7DEFB034B180003F0FCF8B5
:103FD000C046BD4680BDC046006CDC02F0B59BB05B
:103FE00000AF5426BB19180014231A00002103F057
:103FF00058F934243B19180020231A00002103F03B
:1040000050F91C257B19180018231A00002103F011
:1040100048F93B1D180018231A00002103F041F94C
:10402000DF4B102202211800FFF748FADC4B002278
:1040300002211800FFF714FBD94B2022022118009F
:10404000FFF760FAD64B002202211800FFF77CFA36
:10405000D34B802202211800FFF798FA80235B00DF
:10406000CF481A000221FFF7B3FA8023DB00CC48C7
:104070001A000221FFF7D0FAC94B102203211800C1
:10408000FFF71CFAC64B002203211800FFF7E8FADD
:10409000C34B202203211800FFF734FAC04B002243
:1040A00003211800FFF750FABD4B802203211800AE
:1040B000FFF76CFA80235B00B9481A000321FFF771
:1040C00087FA8023DB00B6481A000321FFF7A4FA21
:1040D000B34B102205211800FFF7F0F9B04B002276
:1040E00005211800FFF7BCFAAD4B2022052118006E
:1040F000FFF708FAAA4B002205211800FFF724FA5F
:10410000A74B802205211800FFF740FA80235B00AF
:10411000A3481A000521FFF75BFA8023DB00A048C3
:104120001A000521FFF778FA80231B011800FFF71A
:1041300009FCBB1900221A80BB1900225A60BB1966
:104140009022FF329A60BB190022DA60BB1900226C
:104150001A61BB19934A1900100002F03FFC914B01
:104160001800FFF733FC8F4B00211800FFF70EFEFD
:104170008C4B01211800FFF783FC3B1960221A6069
:104180003B1900225A603B1900229A603B19FA221F
:104190009200DA603B1900221A613B1900225A6131
:1041A0003B19802252009A613B190022DA613B19C7
:1041B0007C481A00012102F07FFC7A4B0121180093
:1041C000FFF714FC774B10211800FFF759FC3B193F
:1041D0000022DA603B1973481A00102102F06CFCCF
:1041E000704B10211800FFF701FC80235B006D4A23
:1041F00019001000FFF744FC3B19FA229200DA6024
:104200003A1980235B006748190002F055FC8023AF
:104210005B00644A19001000FFF7E8FB614B2021A6
:104220001800FFF7C7FD5F4B1800FFF7D5FD290009
:104230007B1800221A607B1800225A607B1800222B
:104240009A607B182D221A737B180022DA817B1862
:10425000802292011A617B1800225A617B18514A10
:104260001900100002F082FC3B1D80221A603B1DE9
:1042700002225A603B1D00229A603B1D0022DA6038
:104280003B1D00221A613B1D02225A613A1D9023F8
:10429000DB051100180002F09BF93B1D01221A609A
:1042A0003B1D02225A603B1D00229A603B1D0022EA
:1042B000DA603B1D00221A613B1D02225A613B1D40
:1042C000394A1900100002F083F93B1D02221A60DE
:1042D0003B1D02225A603B1D00229A603B1D0022BA
:1042E000DA603B1D00221A613B1D02225A613B1D10
:1042F0002D4A1900100002F06BF93B1D802252007C
:104300001A603B1D02225A603B1D00229A603B1D31
:104310000022DA603B1D00221A613B1D02225A6115
:104320003A1D9023DB051100180002F051F93B1DE6
:10433000802292001A603B1D02225A603B1D00221F
:104340009A603B1D0022DA603B1D00221A613B1D72
:1043500002225A613A1D9023DB051100180002F079
:1043600037F93B1D8022D2001A603B1D02225A60A1
:104370003B1D00229A603B1D0022DA603B1D00229B
:104380001A613B1D02225A613A1D9023DB05110080
:10439000180002F01DF9C046BD461BB0F0BDC04676
:1043A00000000240002C01400004004890B58DB090
:1043B00000AF1C243B19180014231A00002102F03E
:1043C00070FF3B1D180018231A00002102F069FF3E
:1043D0000220FFF7A1FA80239B021800FFF786FA5C
:1043E0003B1D40221A603B1D02225A603B1D0022E9
:1043F0009A603B1D0022DA603B1D00221A613B1DC2
:1044000001225A613A1D9023DB051100180002F0C9
:10441000DFF89023DB05012240211800FFF734FD6F
:10442000374B002204211800FFF748F8344B0022D4
:1044300004211800FFF714F9314B00220421180061
:10444000FFF760F82E4B002204211800FFF77CF8DC
:104450002B4B802204211800FFF798F880235B0083
:1044600027481A000421FFF7B3F88023DB00244813
:104470001A000421FFF7D0F800211020FEF70CFFEE
:104480001020FEF7EFFE3B192F221A803B19002265
:104490005A603B191B4A9A603B190022DA603B19AB
:1044A000194A1900100002F099FA174B1800FFF78B
:1044B0008DFA154B00211800FFF77CFC124B1800F9
:1044C000FFF78AFC80235B020F481A000121FFF7E7
:1044D0001FFB0D4B002201211800FFF76BFB0A4B5D
:1044E000002201211800FFF7B7FB074B0022012132
:1044F0001800FFF703FCC046BD460DB090BDC04696
:1045000000000240FFFF00000004004090B58FB0A3
:1045100000AF24243B19180014231A00002102F0D4
:10452000C0FE3B1D180020231A00002102F0B9FE36
:1045300080235B001800FFF7EFF900211320FEF73E
:10454000ABFE1320FEF78EFE3B1908221A803B19A2
:1045500000225A603B19164A9A603B190022DA6021
:104560003B19144A1900100002F038FA114B1800D8
:10457000FFF71EFA3B1D00221A603B1D00225A6005
:104580003B1D00229A603B1D0022DA603B1D002289
:104590001A613B1D07481A00012102F08DFA054BF4
:1045A00001211800FFF722FAC046BD460FB090BDAA
:1045B0007F3E00000020004080B586B000AF214B58
:1045C0001B681800FEF742F800221F4BFCF7E4FEC0
:1045D00002000B001000190000221C4BFDF73EFCEE
:1045E00002000B0010001900FBF756FF03007B616F
:1045F0003B00180014231A00002102F052FE802311
:104600009B021800FFF79EF97B699AB23B001A8063
:104610003B0000225A603B000D4A9A603B0000229A
:10462000DA603B0000221A613B000A4A19001000C0
:1046300002F0D4F9074B1800FFF7BAF9C046BD469F
:1046400006B080BD0C00002080842E410000F03FA9
:10465000FFFF00000044014080B586B000AF3B1D65
:10466000180014231A00002102F01BFE8023DB0235
:104670001800FFF767F93B1DE022FF321A803B1D4F
:1046800000225A603B1D0B4A9A603B1D0022DA60F3
:104690003B1D00221A613B1D074A1900100002F061
:1046A0009DF9054B1800FFF783F9C046BD4606B0DB
:1046B00080BDC046FFFF00000048014090B58FB0AC
:1046C00000AF1C243B1918001C231A00002102F023
:1046D000E8FD3B1D180018231A00002102F0E1FD3F
:1046E0008023DB011800FFF72DF98023DB0218007F
:1046F000FFF7FCF83B1D40221A603B1D02225A6066
:104700003B1D03229A603B1D0022DA603B1D002204
:104710001A613B1D00225A613B1D254A19001000F9
:1047200001F056FF3B1D80221A603B1D02225A6099
:104730003B1D03229A603B1D0022DA603B1D0022D4
:104740001A613B1D00225A613B1D194A19001000D5
:1047500001F03EFF3B19E12252021A6021007B1852
:1047600000225A607B1800229A607B180022DA60CF
:104770007B180C221A617B1800225A617B180022D8
:104780009A617B180B4A1900100002F0ABFC094B30
:104790001800FFF757FB074B1800FFF73BFB054BD3
:1047A0001800FFF728FBC046BD460FB090BDC046BD
:1047B000000400480038014080B500AF0120FFF739
:1047C00095F801210920FEF767FD0920FEF74AFD53
:1047D00000210B20FEF760FD0B20FEF743FDC046D5
:1047E000BD4680BD80B586B000AF3B0018001823E1
:1047F0001A00002102F055FD80239B021800FFF7EC
:1048000075F88023DB021800FFF770F880231A0286
:104810009023DB0511001800FFF75EFB3B008022B0
:1048200012021A603B0001225A603B0000229A608B
:104830003B000022DA603B0000221A613A0090231C
:10484000DB051100180001F0C3FE3B0080221A6056
:104850003B0001225A603B0000229A603B0000228C
:10486000DA603B0000221A613B00264A1900100062
:1048700001F0AEFE234B80211800FFF721FB3B0027
:1048800008221A603B0001225A603B0000229A6015
:104890003B000022DA603B0000221A613B00194A0B
:1048A0001900100001F094FE3B0010221A603B003A
:1048B00001225A603B0000229A603B000022DA602D
:1048C0003B0000221A613B000E4A1900100001F063
:1048D0007FFE3B0020221A603B0001225A603B0011
:1048E00000229A603B000022DA603B0000221A613D
:1048F0003B00044A1900100001F06AFEC046BD46A4
:1049000006B080BD0004004890B59BB000AF802386
:104910009B021800FEF7EAFF80239B001800FFF7B8
:1049200011F80120FEF7E2FF50243B19180018236C
:104930001A00002102F0B5FC3B1902221A603B1953
:1049400003225A603B1900221A613A199023DB05B1
:104950001100180001F03CFE3B1904221A603B19BB
:1049600003225A603B1900221A613A199023DB0591
:104970001100180001F02CFE3B1908221A603B19A7
:1049800003225A603B1900221A613A199023DB0571
:104990001100180001F01CFE3B1910221A603B198F
:1049A00003225A603B1900221A613A199023DB0551
:1049B0001100180001F00CFE3B1920221A603B196F
:1049C00003225A603B1900221A613A199023DB0531
:1049D0001100180001F0FCFD4B4B0121180001F003
:1049E0007FFC4A4B00211800FEF7C4FC020028217E
:1049F0007B181A60464A7B185A607B1800229A601E
:104A00007B1806221A627B1800221A617B1880220A
:104A10005A617B18802252009A617B188022D20052
:104A2000DA617B182022DA607B18802292015A62B8
:104A30007B1835481A00012101F0D8FC354B1800CD
:104A400001F088FA314B180001F098FA18217B1810
:104A500000221A607B1800225A607B1800229A609C
:104A60007B180022DA607B18284A1900100001F038
:104A700025FB3B1D00221A603B1D00225A603B1D96
:104A8000802292019A603B1D0322DA603B1D802246
:104A900052011A613B1D1D4A1900100001F044FB30
:104AA00080231B041B4A19001000FEF76FFC1A4AF2
:104AB000164B11001800FEF7A1FC144B0021180042
:104AC000FEF78AFC114B07211800FEF773FC0F4B11
:104AD0001800FEF7A1FCC0460C4B1800FEF7AEFC18
:104AE000031EF9D0084B01211800FEF7DDFD064B2F
:104AF00001211800FEF7C4FC044B1800FEF7AEFCC1
:104B0000C046BD461BB090BD0000024000240140DD
:104B10008C010020082701403E0001DC80B582B0F6
:104B200000AF78607B681B6801221A437B681A60BB
:104B3000C046BD4602B080BD80B582B000AF78608F
:104B40007B681B68012293431A007B681A60C04689
:104B5000BD4602B080BD80B582B000AF78603960DC
:104B60007B683A68DA62C046BD4602B080BD80B557
:104B700082B000AF786039607B681A6A3B681A437C
:104B80007B681A62C046BD4602B080BD80B582B067
:104B900000AF786039607B681B6A3A68D2431A407C
:104BA0007B681A62C046BD4602B080BD80B586B043
:104BB00000AFF860B9607A60BB68012B1ED0BB689B
:104BC000042B19D0BB68102B14D0BB68402B0FD01E
:104BD000BA6880235B009A4208D0BA688023DB0061
:104BE0009A4201D105230AE0062308E0042306E0E7
:104BF000032304E0022302E0012300E00023172046
:104C00003A181370FB68183319003B181B780E4ACA
:104C1000D35CCB183B613B691B683A1812780B498F
:104C20008A5C110073228A40D2431A403B181B78D9
:104C30000649CB5C19007B688B401A433B691A60BC
:104C4000C046BD4606B080BD5C74000864740008B0
:104C500080B582B000AF786039607B685B6CFF2202
:104C600093431A003B681A437B685A64C046BD46AA
:104C700002B080BD80B582B000AF786039607B68DB
:104C80003A685A63C046BD4602B080BD80B582B066
:104C900000AF786039607B683A689A63C046BD4669
:104CA00002B080BD80B582B000AF786039607B68AB
:104CB0003A68DA63C046BD4602B080BD80B582B0B6
:104CC00000AF78607B685B6C802212021A437B68BD
:104CD0005A64C046BD4602B080BD80B582B000AF08
:104CE00078607B68DB6801221A437B68DA60C04623
:104CF000BD4602B080BD80B582B000AF78607B68F1
:104D00005B6920221A437B685A61C046BD4602B0E7
:104D100080BD80B582B000AF01237B607B6883F3E8
:104D20001088C046C046BD4602B080BD80B582B086
:104D300000AF00237B607B6883F31088C046C046C9
:104D4000BD4602B080BD000090B583B000AF020048
:104D5000BB1D1A803B1D0A1C1A80344BBA1D1288D9
:104D60001A80334B1A68BB1D1B8819001000FBF713
:104D7000CBF903009BB2013B9AB22E4B1A802D4B0C
:104D80001A882D4B1A802C4B1B885B089AB22B4B30
:104D90001A803B1D1B881800FBF732FF031C2849B3
:104DA000181CFBF797FB031C1C1C214B1B681800ED
:104DB000FBF774FF031C191CFE208005FBF78AFB20
:104DC000031C191C201CFBF785FB031C181CFBF79C
:104DD0004BFB03009AB21B4B1A801B4B01221A702B
:104DE000184B1A88194B1A8096235B00184A190031
:104DF000100000F03FF83B1D1B88164A19001000F8
:104E0000FFF726FF0B4B1B881A00124B11001800EE
:104E1000FFF7A1FE0F4B1800FFF750FF0D4B1800D6
:104E2000FFF77CFEC046BD4603B090BDA201002046
:104E30000C000020A4010020980100209A0100200D
:104E4000286B6E4E9C0100209E010020A0010020D6
:104E500000200040002C014080B500AF044B2D2104
:104E60001800FFF771FF00F029FAC046BD4680BD6B
:104E7000C05D000080B582B000AF78603960084B3B
:104E80001B6839681800FBF73FF903005A1E7B685E
:104E900011001800FFF75FFEC046BD4602B080BD9E
:104EA0000C00002080B582B000AF78607B68064AB5
:104EB00019001000FFF7DEFF7B689AB2034B1A80DF
:104EC000C046BD4602B080BD00200040A6010020C3
:104ED00080B582B000AF0200FB1D1A70FB1D1B786D
:104EE000022B2CD03CDC002B02D0012B16D037E05B
:104EF00080235B001D4820221900FFF757FE802306
:104F00005B001A4A19001000FFF740FE8023DB0007
:104F1000164A19001000FFF739FE22E0134B202239
:104F200010211800FFF742FE104B10211800FFF768
:104F30002DFE0E4B40211800FFF728FE11E00B4B11
:104F4000202201211800FFF731FE084B0121180033
:104F5000FFF71CFE054B04211800FFF717FE00E0C9
:104F6000C046C046BD4602B080BDC046002C0140D0
:104F700080B582B000AF02003960FB1D1A70FB1DC6
:104F80001B78022B2CD03CDC002B02D0012B16D03E
:104F900037E080235B001D4860221900FFF706FE02
:104FA00080235B00194A19001000FFF7EFFD8023F2
:104FB000DB00164A19001000FFF7D9FD22E0134B61
:104FC000602210211800FFF7F1FD104B102118008E
:104FD000FFF7DCFD0D4B40211800FFF7C8FD11E085
:104FE0000A4B602201211800FFF7E0FD074B012169
:104FF0001800FFF7CBFD054B04211800FFF7B7FDA4
:1050000000E0C046C046BD4602B080BD002C014055
:1050100080B582B000AF02003960FB1D1A70FB1D25
:105020001B78022B2CD03CDC002B02D0012B16D09D
:1050300037E080235B001D4860221900FFF7B6FDB2
:105040008023DB00194A19001000FFF79FFD802321
:105050005B00164A19001000FFF789FD22E0134B90
:10506000602210211800FFF7A1FD104B402118000D
:10507000FFF78CFD0D4B10211800FFF778FD11E0B4
:105080000A4B602201211800FFF790FD074B042115
:105090001800FFF77BFD054B01211800FFF767FDA6
:1050A00000E0C046C046BD4602B080BD002C0140B5
:1050B00080B500AF294B1B881A00294B110018003E
:1050C000FFF7D8FD254B1B881A00254B110018004F
:1050D000FFF7DCFD214B1B881A00214B1100180043
:1050E000FFF7E0FD1E4B402201211800FFF75EFD97
:1050F0001B4B01211800FFF73AFD194B0421180042
:10510000FFF744FD164B402210211800FFF74EFD1B
:10511000134B10211800FFF72AFD114B40211800F6
:10512000FFF734FD80235B000D4840221900FFF794
:105130003DFD80235B000A4A19001000FFF717FDB0
:105140008023DB00064A19001000FFF71FFD044B07
:105150001800FFF7D0FDC046BD4680BD9A01002073
:10516000002C014080B500AF1D4B402201211800EA
:10517000FFF71CFD1A4B01211800FFF707FD184B24
:1051800004211800FFF702FD154B402210211800E2
:10519000FFF70CFD124B10211800FFF7F7FC104B26
:1051A00040211800FFF7F2FC80235B000C484022EE
:1051B0001900FFF7FBFC80235B00094A190010006F
:1051C000FFF7E4FC8023DB00054A19001000FFF71D
:1051D000DDFC034B1800FFF78EFDC046BD4680BDC9
:1051E000002C014080B582B000AF02003960FB1D89
:1051F0001A70FB1D1B78062B58D89A002E4BD3181B
:105200001B689F463B6819000020FFF701FF3B68C1
:1052100019000120FFF7ACFE0220FFF759FE46E01F
:105220003B6819000020FFF7F3FE3B6819000220DD
:10523000FFF79EFE0120FFF74BFE38E03B681900A8
:105240000120FFF7E5FE3B6819000220FFF790FE02
:105250000020FFF73DFE2AE03B6819000120FFF720
:10526000D7FE3B6819000020FFF782FE0220FFF7FF
:105270002FFE1CE03B6819000220FFF7C9FE3B68C7
:1052800019000020FFF774FE0120FFF721FE0EE059
:105290003B6819000220FFF7BBFE3B6819000120A4
:1052A000FFF766FE0020FFF713FE00E0C046C04691
:1052B000BD4602B080BDC0466C74000880B500AF2A
:1052C000FFF727FDFFF7F4FEFFF730FDC046BD46B0
:1052D00080BD80B500AFFFF71CFDFFF743FFFFF770
:1052E00025FDC046BD4680BD80B582B000AF786068
:1052F0007B680A4A19001000FFF7BCFC7B68074A6C
:1053000019001000FFF7C2FC7B68044A1900100066
:10531000FFF7C8FCC046BD4602B080BD002C01406E
:1053200080B500AFFFF71EFF054B1800FFF7D5FC57
:10533000034B1800FFF7F2FBC046BD4680BDC046D8
:1053400000200040B0B584B000AF7860574B1B79A7
:10535000002B10D1564B1B881A007B6893420AD948
:10536000544B1B881A007B68934204D2FFF7D8FF86
:105370004E4B01221A714D4B1B79002B00D188E056
:105380004D4B1B881800FDF731F94C4A4C4BFCF78C
:10539000F9FA02000B0014001D007868FDF756F9B9
:1053A000484A494BFCF7EEFA02000B0020002900A6
:1053B000FBF7B6FC02000B0010001900FBF76CF8BD
:1053C00003009AB23C4B1A803B4B1B881A00384BA7
:1053D0001B8802339A4215DCFFF770FF3B4B180025
:1053E000FFF7AAFB314B00221A71394B00221A70C9
:1053F000384B1B881A00384B1A60384B96225200E3
:105400001A8036E0364B1B789AB22B4B1B889A4297
:105410002FD0344B5B6A14211800FAF7FBFE0B1EE9
:1054200027D1254B1B881A00214B1B88D31A2E4AE3
:105430005A43204B1B8819001D4B1B88CB1A19009F
:105440001000FAF7EBFE03009AB20E243B1927492D
:105450008C4662441A803B191B881800FFF722FD16
:10546000154B1B88DAB21E4B1A701C4B3A19128866
:105470001A80194B1B681E4A934213D9164B1B689E
:105480001800FFF731FF144B1B685A1E124B1A60AD
:1054900008E00F4B1B78002B04D0FFF71AFF0C4BD2
:1054A00000221A70C046BD4604B0B0BDB80100204D
:1054B0009C01002098010020A001002033333333E9
:1054C0003333E33F9A9999999999D93F0020004045
:1054D000090000209A010020B4010020A60100204C
:1054E000BE010020002C014064960000DC05000095
:1054F000EE02000080B582B000AF404B1B78012B5C
:1055000003D03E4B1B78062B06D10220FDF732FB61
:1055100003001A00FB1D1A70384B1B78032B03D0B5
:10552000364B1B78022B06D10120FDF723FB03002D
:105530001A00FB1D1A70314B1B78052B03D02F4B23
:105540001B78042B06D10020FDF714FB03001A0082
:10555000FB1D1A702A4B1B882A4A93420AD8FB1D4E
:105560001B78002B06D1254B1B780133DAB2234B75
:105570001A7018E0244B1B78002B0AD0FB1D1B78F7
:10558000002B10D01D4B1B780133DAB21B4B1A7065
:1055900009E0FB1D1B78002B05D1184B1B7801334C
:1055A000DAB2164B1A70154B1B78062B0FD9134B1A
:1055B00001221A70154B5A6A154B1B68D31A3B60AF
:1055C000124B5A6A124B1A60124B3A681A60124B0D
:1055D0001A780A4B1B789A420BD0084B1A780F4B5B
:1055E0001B8819001000FFF7FDFD044B1A780A4BC9
:1055F0001A70C046BD4602B080BDC0469E01002064
:10560000A6010020B70B0000080000200048014060
:10561000AC010020B0010020A8010020A001002062
:1056200080B500AFC046BD4680BD000080B500AF6C
:105630006420FFF759FE64210120FFF7D3FD0D4BD5
:1056400046229A62962001F0CFFD0A4B32229A62DE
:10565000962001F0C9FD074B28229A62962001F09E
:10566000C3FD044B00229A62FFF728FEC046BD46E8
:1056700080BDC046002C014080B582B000AF020062
:10568000FB1D1A706420FFF72FFEFB1D1B781421F1
:105690001800FFF7A7FD0A4B4B229A62642001F025
:1056A000A3FD074B32229A62642001F09DFD044B5A
:1056B00000229A62FFF702FEC046BD4602B080BDDE
:1056C000002C014080B500AFBFF34F8FC046044BA4
:1056D000044ADA60BFF34F8FC046C046FDE7C046BC
:1056E00000ED00E00400FA0580B582B000AF7860FC
:1056F00039607B683A689A61C046BD4602B080BD99
:1057000080B582B000AF786039607B683A689A6291
:10571000C046BD4602B080BD90B583B002AFFEF773
:10572000E7FBFDF7B3FCFFF797FBFDF753FA802388
:105730001A029023DB0511001800FFF7D5FF344B48
:10574000180000F03AFB334B180000F036FB324BE8
:105750001B881900304B5B881A002F4BDB891C001B
:105760002D4B9B682D480093230000F026FBFFF78C
:105770005DFF2B4B180001F037FDFDF7F5F8FDF745
:10578000C1FC284B1B79042B09D10120FFF774FFC2
:10579000244B01225A71234B01221A71EDE7214B50
:1057A0005B79002B0DD080231A029023DB051100BA
:1057B0001800FFF7A5FF1B4B1B681800FFF7C2FD81
:1057C000DBE7184B1B79002B11D1164A8C235B00A9
:1057D000D35A013B99B2134A8C235B00D152114A30
:1057E0008C235B00D35A012B01D8FFF76BFF0D4BC5
:1057F0001B79022BC1D1084B9B881A004B23991AA5
:10580000084B9A68084B180000F0D7FAB5E7C04675
:10581000CC720008E072000874010020F0720008E9
:10582000DC050000580000201873000880B582B025
:1058300000AF78607B681B6802221340023B5A422B
:105840005341DBB21800BD4602B080BD80B582B0C6
:1058500000AF78607B681B6820221340203B5A42CF
:105860005341DBB21800BD4602B080BD80B582B0A6
:1058700000AF78607B681A6880239B001340054A5C
:10588000944663445A425341DBB21800BD4602B00D
:1058900080BDC04600FEFFFF80B582B000AF7860DB
:1058A0007B681A6880239B011340054A9446634431
:1058B0005A425341DBB21800BD4602B080BDC0461B
:1058C00000E0FFFF80B582B000AF78607B681A68A7
:1058D00080239B021340054A944663445A42534135
:1058E000DBB21800BD4602B080BDC0460000FEFF1E
:1058F00080B582B000AF78607B681A688023DB01D6
:105900001340054A944663445A425341DBB218009F
:10591000BD4602B080BDC04600C0FFFF80B582B06A
:1059200000AF78607B681A6880231B021340054A29
:10593000944663445A425341DBB21800BD4602B05C
:1059400080BDC0460080FFFF80B582B000AF7860A8
:105950007B6810225A60C046BD4602B080BD80B54B
:1059600082B000AF78607B68802252005A60C046E7
:10597000BD4602B080BD80B582B000AF78607B6864
:10598000802252015A60C046BD4602B080BD80B53B
:1059900082B000AF78607B68802252025A60C046B5
:1059A000BD4602B080BD80B582B000AF78607B6834
:1059B00002225A60C046BD4602B080BD80B582B0AA
:1059C00000AF78607B688022D2015A60C046BD4635
:1059D00002B080BD80B582B000AF78607B68802265
:1059E00012025A60C046BD4602B080BD80B582B08A
:1059F00000AF786039607B683A685A62C046BD463D
:105A000002B080BD80B586B000AFF860B9607A6042
:105A1000BB68012B1ED0BB68042B19D0BB68102BB0
:105A200014D0BB68402B0FD0BA6880235B009A4229
:105A300008D0BA688023DB009A4201D105230AE02E
:105A4000062308E0042306E0032304E0022302E027
:105A5000012300E0002317203A181370FB681B6A2B
:105A60003A1812780A498A5C11000A228A40D24305
:105A70001A403B181B780649CB5C19007B688B40A9
:105A80001A43FB681A62C046BD4606B080BDC046D8
:105A90008874000880B584B000AF786039603B68D6
:105AA000012B1ED03B68042B19D03B68102B14D05F
:105AB0003B68402B0FD03A6880235B009A4208D0A5
:105AC0003A688023DB009A4201D105230AE00623CD
:105AD00008E0042306E0032304E0022302E001239C
